:100000000C9462000C948A000C948A000C948A0070
:100010000C948A000C948A000C948A000C948A0038
:100020000C948A000C948A000C948A000C948A0028
:100030000C948A000C948A000C948A000C948A0018
:100040000C9485030C948A000C948A000C948A000A
:100050000C948A000C948A000C948A000C948A00F8
:100060000C948A000C948A000000000024002700F1
:100070002A0000000000250028002B0000000000DE
:1000800023002600290004040404040404040202DA
:100090000202020203030303030301020408102007
:1000A0004080010204081020010204081020000012
:1000B0000008000201000003040700000000000027
:1000C0000000940511241FBECFEFD8E0DEBFCDBFE6
:1000D00011E0A0E0B1E0E4E3FCE002C005900D9285
:1000E000AC33B107D9F721E0ACE3B1E001C01D9218
:1000F000AD3CB207E1F710E0C2E6D0E004C02197C2
:10010000FE010E940D06C136D107C9F70E94CF0338
:100110000C9418060C94000096E0899FD0011124DD
:10012000AA5BBE4F90967C936E935F9791E09196F9
:100130009C9391979091B201E091B301F091B40139
:10014000992339F0309751F0811108C080916201F4
:1001500004C0309719F05C968C9109940895CF9261
:10016000DF92EF92FF920F931F9396E0899FF00129
:100170001124EA5BFE4F11A2278D30A121303105F9
:1001800039F158F02230310509F447C023303105E8
:1001900009F04FC060E070E044C0662309F449C034
:1001A00061E070E00E948C002FB7F89480914201CA
:1001B00090914301A0914401B09145012FBF8093DC
:1001C0009E0190939F01A093A001B093A10131C023
:1001D0009FB7F894C0904201D0904301E090440151
:1001E000F09045019FBF00919E0110919F012091C9
:1001F000A0013091A101C01AD10AE20AF30A0091CC
:10020000B0011091B10120E030E00C151D052E0564
:100210003F0518F462E070E004C061110AC063E0B9
:1002200070E01F910F91FF90EF90DF90CF900C94B2
:100230008C001F910F91FF90EF90DF90CF90089569
:10024000833081F028F4813099F08230A1F0089554
:100250008730A9F08830B9F08430D1F480918000E3
:100260008F7D03C0809180008F77809380000895F8
:1002700084B58F7702C084B58F7D84BD0895809149
:10028000B0008F7703C08091B0008F7D8093B00065
:100290000895CF93DF93282F30E0F901E255FF4F07
:1002A0008491F901E656FF4FD491F901EA57FF4FC7
:1002B000C491CC2391F081110E942001EC2FF0E039
:1002C000EE0FFF1FE458FF4FA591B491EC91ED2381
:1002D00081E090E021F480E002C080E090E0DF91D6
:1002E000CF9108951F93CF93DF93282F30E0F9012A
:1002F000E255FF4F8491F901E656FF4FD491F90181
:10030000EA57FF4FC491CC23C1F0162F81110E94F0
:100310002001EC2FF0E0EE0FFF1FEE58FF4FA591EC
:10032000B4919FB7F894111104C08C91D095D82343
:1003300002C0EC91DE2BDC939FBFDF91CF911F9128
:100340000895CF93DF9390E0FC01E656FF4F249190
:10035000FC01EA57FF4F8491882361F190E0880FF8
:10036000991FFC01E859FF4FC591D491FC01EE584B
:10037000FF4FA591B491611109C09FB7F89488818E
:10038000209582238883EC912E230BC0623061F488
:100390009FB7F8948881322F309583238883EC911E
:1003A0002E2B2C939FBF06C08FB7F894E8812E2B7D
:1003B00028838FBFDF91CF910895862F642F0C94EF
:1003C000A101862F642F0C947201862F0C94490191
:1003D000CF92DF92EF92FF920F931F93CF93DF9311
:1003E0006C017A018B01C0E0D0E0CE15DF0581F011
:1003F000D8016D918D01D601ED91FC910190F081B4
:10040000E02DC6010995892B11F02196EECF7E01D2
:10041000C701DF91CF911F910F91FF90EF90DF9077
:10042000CF900895CF93DF93EC0160E08E810E941E
:10043000720161E08E810E94720160E08E810E94F3
:1004400072018BE891E00197F1F7DF91CF91089568
:10045000CF92DF92EF92FF920F931F93CF93DF9390
:100460006C017C0187E0E80EF11CC0E0D0E0062FB3
:1004700010E0B8010C2E02C0759567950A94E2F75A
:100480006170F70181917F010E9472012196C43051
:10049000D10579F7C601DF91CF911F910F91FF90A0
:1004A000EF90DF90CF900C941202CF92DF92EF92F8
:1004B000FF920F931F93CF93DF93EC01F62E642FDF
:1004C0008C810E9472018D818F3F19F060E00E9443
:1004D00072018F850F2D10E084FF25C06E0187E02B
:1004E000C80ED11CE12CF12CB8010E2C02C0759560
:1004F00067950A94E2F76170F60181916F010E949D
:100500007201FFEFEF1AFF0A88E0E816F10461F7C5
:10051000CE01DF91CF911F910F91FF90EF90DF906F
:10052000CF900C941202B80184E0759567958A9576
:10053000E1F7CE010E9428026F2DCE01DF91CF910D
:100540001F910F91FF90EF90DF90CF900C942802B5
:1005500040E0682F85EB91E00C945502CF93DF9338
:10056000623028F09091C40198609093C401609328
:10057000C8011092C90190E49093CA018093CB0105
:1005800090E0805C9F4F8093CC0161E08091B90145
:100590000E94A1018091BA018F3F19F061E00E9491
:1005A000A10161E08091BB010E94A101C5EBD1E0F6
:1005B0009E01255B31408091C40184FD03C084E02D
:1005C00090E002C088E090E02196281739072CF4CB
:1005D00061E08E810E94A101EBCF8BE39DE001974A
:1005E000F1F760E08091B9010E94720160E08091B2
:1005F000BB010E9472018091BA018F3F19F060E047
:100600000E9472018091C40184FD20C063E085EBEB
:1006100091E00E942802CBE4D6E4CE010197F1F7E5
:1006200063E085EB91E00E9428022197F1F763E0F7
:1006300085EB91E00E94280283E592E00197F1F7B3
:1006400062E085EB91E00E94280215C080620E9462
:10065000A8028BE496E40197F1F78091C4018062CF
:100660000E94A80283E592E00197F1F78091C4010E
:1006700080620E94A8028091C40180620E94A80248
:1006800084E08093C5018CE00E94A80281E00E9472
:10069000A8028BE39FE10197F1F782E08093C60106
:1006A00086E0DF91CF910C94A802643008F063E0FB
:1006B0009091C801691710F06FEF690FE62FF0E015
:1006C000EB54FE4F9489890F80680C94A80241E096
:1006D0000E94550281E090E00895089580E090E046
:1006E0000895009769F0FC0101900020E9F7319727
:1006F000AF01481B590BBC0185EB91E00C94E8015C
:1007000080E090E008950E9413061F920F920FB6AA
:100710000F9211242F933F938F939F93AF93BF9387
:100720008091420190914301A0914401B091450113
:100730003091410123E0230F2D3720F40196A11DB4
:10074000B11D05C026E8230F0296A11DB11D2093FF
:1007500041018093420190934301A0934401B093DF
:10076000450180913D0190913E01A0913F01B091E2
:1007700040010196A11DB11D80933D0190933E0162
:10078000A0933F01B0934001BF91AF919F918F9192
:100790003F912F910F900FBE0F901F901895789456
:1007A00084B5826084BD84B5816084BD85B5826076
:1007B00085BD85B5816085BD80916E008160809327
:1007C0006E00109281008091810082608093810090
:1007D00080918100816080938100809180008160A0
:1007E000809380008091B10084608093B1008091FB
:1007F000B00081608093B00080917A008460809323
:100800007A0080917A00826080937A0080917A00E9
:10081000816080937A0080917A00806880937A006A
:100820001092C10061E086E00E94A10164E084E1D1
:100830000E94AE0263E084E00E94550389E291E0E9
:100840000E94710360E080E00E945503812C912C8E
:100850005401839422242A94322C60E0662E60E0B6
:10086000762E21E02093B2018FB7F8944091420197
:100870005091430160914401709145018FBF809177
:10088000A2019091A301A091A401B091A501481BE0
:10089000590B6A0B7B0B8091AE019091AF01A0E0E8
:1008A000B0E084179507A607B70708F0E6C0C0E0D8
:1008B0008091AC01C81710F0512C40C0E091A80104
:1008C000F091A901EC0FF11D62E080810E94A1016D
:1008D000CF5FEECFC42DD0E0E091A801F091A90147
:1008E000EC0FFD1F80810E9449012496CC0FDD1F73
:1008F000CA5BDE4F892B09F04BC0888199818C2916
:100900009D299983888343948091AC01481610F304
:10091000E091AA01F091AB01E00FF11F61E080814D
:100920000E9472018091AA019091AB01FC01E00F3D
:10093000F11F60E080810E94A10153948091AD017C
:10094000581658F5052D10E0E091AA01F091AB0181
:10095000E00FF11F61E080810E94A101E091AA01F6
:10096000F091AB01E00FF11F60E080810E94720105
:10097000D501C401052C04C0880F991FAA1FBB1FF5
:100980000A94D2F76C017C01E094F094412CBCCF26
:10099000888199818E219F21B4CFC6E4D1E0FE01E8
:1009A000878D90A1892B21F4148E368E258E11A26D
:1009B000369631E0E238F30799F710E08091AC0108
:1009C000181770F500E0E12EF12CC701880F991F70
:1009D000FC01E25BFE4F7F012091AD010217F0F4B4
:1009E000F70140815181002E02C0569547950A9427
:1009F000E2F7642F6170129F90011124200F311DC6
:100A0000E6E4F1E080E0A58DB68D2A173B0709F4F6
:100A100081C08F5F36968A30B1F75EC01F5FCECF40
:100A200080E099A1911181E0269621E0C238D20799
:100A3000C1F79FB7F89440914201509143016091F2
:100A40004401709145019FBF4093A2015093A301BF
:100A50006093A4017093A501882379F080916701C8
:100A6000882359F08091650190916601019729F4DE
:100A700080916201803349F503C01092B20125C014
:100A800080913C01811104C031E030933C0102C0EF
:100A900010923C0180913C01882359F061E086E08E
:100AA0000E94720160E080E00E94550384E391E0BF
:100AB0000AC060E086E00E94720160E080E00E946F
:100AC000550388E391E00E9471036114710409F4F5
:100AD000C8CE0E940000C5CE40FF1EC0E6E4F1E093
:100AE00080E090E0448D411119C0E091A601F091A1
:100AF000A701E20FF31F7081F6E0F89FA001F99FB4
:100B0000500D1124FA01EA5BFE4F748F368F258F4A
:100B100010A2178E0E94AF000F5F5ECF019636962F
:100B20008A309105F9F6F8CF1092B8011092B7010A
:100B300081E291E09093B6018093B5018EE08093BD
:100B4000B9018FEF8093BA018FE08093BB0180E100
:100B50008093BC0181E18093BD0182E18093BE015D
:100B600083E18093BF011092C0011092C1011092E5
:100B7000C2011092C3011092C40161E080E10E94A1
:100B8000AE021092480110924C0110924B0110924B
:100B90004D0187E191E09093470180934601E6E49F
:100BA000F1E0148E10A2178E11A2369681E0E23881
:100BB000F807B9F783E091E09093A9018093A80129
:100BC00080E091E09093AB018093AA0184E0809350
:100BD000AC0183E08093AD0187E091E09093A701A1
:100BE0008093A6018AE090E09093AF018093AE01DC
:100BF00084EF91E09093B1018093B0011092B40121
:100C00001092B3011092A2011092A3011092A401BC
:100C10001092A5011092B2010895EE0FFF1F0590EA
:100C2000F491E02D099481E090E0F8940C9418067A
:040C3000F894FFCF66
:100C34000D0C0B0A0908073132333435363738398D
:100C44002A302300000000DD01E101E5010000007D
:100C5400006703E8016E036D03536D6172742048ED
:0C0C64006F6D65004F4E20004F464600AB
:00000001FF
